:0300000002028475
:1000030075AC0075AD0075B30075B40075B10075BE
:10001300B200438E1043878075985253C4DF5389CF
:100023000F438920758DF7D28E223099FDC299F541
:100033009922E493600612002DA380F62275F064E2
:1000430084443012002DE5F075F00A844430120028
:100053002DE5F0443012002D740D12002D740A1298
:10006300002D22C2AF75C7AA75C755439F0175C737
:10007300AA75C75543A50175AF2275A73F75A6801D
:1000830075AEFF75C7AA75C75543A40175AF217532
:10009300A73F75A6808530AE75C7AA75C75543A41B
:1000A3000175A6818531AE75C7AA75C75543A401ED
:1000B30075A6828532AE75C7AA75C75543A4017567
:1000C300A6838533AE75C7AA75C75543A40175A624
:1000D3008475AE5575C7AA75C75543A40175A68522
:1000E30075AEAA75C7AA75C75543A40175C7AA7586
:1000F300C75553A5FE75C7AA75C755539FFED2AF03
:1001030022903F84E493B4551DA3E493B4AA1790BB
:100113003F80E493F530A3E493F531A3E493F53200
:10012300A3E493F5332275300175310275320375FB
:100133003304220D0A546869732070726F67726109
:100143006D20696C6C757374726174657320686F6C
:100153007720746F2075736520666C617368206DFA
:10016300656D6F727920666F720D0A6E6F6E2D76F4
:100173006F6C6174696C652073746F72616765205D
:100183006F66207661726961626C65732E0D0A4138
:1001930066746572206561636820706F7765722D80
:1001A3006F6E206F722072657365742C207468659E
:1001B300207661726961626C657320617265206C7F
:1001C3006F616465642066726F6D0D0A666C61739E
:1001D30068206D656D6F72792C20696E6372656D31
:1001E300656E7465642C20616E6420746865206E8E
:1001F30065772076616C7565732061726520737411
:100203006F726564206261636B0D0A696E746F209F
:10021300666C617368206D656D6F72792E0D0A0DC2
:100223000A007661726961626C655F009002251253
:100233000035743112002D743D12002DE53012008B
:1002430040900225120035743212002D743D1200C5
:100253002DE531120040900225120035743312004F
:100263002D743D12002DE53212004090022512003C
:1002730035743412002D743D12002DE53312004005
:100283002275817F1200039001361200351201049A
:10029300053005310532053312022F1200660202C2
:0102A300A1B9
:00000001FF
