:030000000205C432
:10002B0002044F4F3D202020202020204A3D20203D
:10003B002020200053746174652030005374617468
:10004B006520310053746174652032005374617400
:10005B0065203300537461746520340053746174EC
:0A006B00652035006F6E006F66001F
:10007500C000788500D8FDD00022C000C0017928D5
:100085007868D8FED9FADAF6D001D00022D29412D7
:100095000075C29422A2E79283A2E69282A2E5921B
:1000A50081A2E49280120092120075A2E39283A2CB
:1000B500E29282A2E19281A2E0928012009222D283
:1000C5009302009AC29302009AC294C0027A28123F
:1000D500007FD00274331200C974331200C9743220
:1000E5001200C974281200C9740C1200C9740112D7
:1000F50000C9C0027A0212007FD00222E493600692
:100105001200C4A380F622444044800200C9C0E026
:10011500E8C4540F44301200C4E8540F44301200B0
:04012500C4D0E02240
:10012900C0E0C0D0C000C001C002E4F53CF53DF517
:100139003EF53FF5407A20E533A2E779047830E6C9
:1001490033F608D9FA7905783CE636D4F608D9F9B0
:10015900DAE5D002D001D000D0D0D0E022C0E0C092
:10016900D0C000C001C002E4F53CF53DF53EF53FC5
:10017900F5407A20E533A2E779047830E633F608CA
:10018900D9FA7905783CC0D0E6243320E70224D097
:1001990020E30224FDD0D033F608D9EADAD6D0021A
:1001A900D001D000D0D0D0E022C0E0C0D0C000C083
:1001B90001C0027A207905C37840E613C0D030E740
:1001C9000224D030E30224FDF618D0D0D9EC79040A
:1001D9007833E613F618D9FADADBD002D001D00069
:1001E900D0D0D0E022C0E0C0D0E5302534F530E5EC
:1001F900313535F531E5323536F532E5333537F513
:1002090033D0D0D0E022C0E0C0D0C3E5309534F57A
:1002190030E5319535F531E5329536F532E53395E9
:1002290037F533D0D0D0E022C0E0C0D0C3E5309557
:1002390034E5319535E5329536E53395379200D079
:10024900D0D0E022C0E0C0D0C3E5349530E5359583
:1002590031E5369532E53795339200D0D0D0E0229A
:10026900C0E0C0D0C200C3E53495307014E53595BF
:1002790031700EE53695327008E53795337002D244
:1002890000D0D0D0E02212026920000302024D22E0
:1002990012026920000302023122C0E0C0F0C0D07E
:1002A900C000C001C002C003E5308534F0A4F8A93C
:1002B900F0E5318534F0A429F9E435F0FAE5308523
:1002C90035F0A429F9E5F03AFAE433FBE53285344F
:1002D900F0A42AFAE5F03BFBE5318535F0A42AFACA
:1002E900E5F03BFBE5308536F0A42AFAE5F03BFB67
:1002F900E5338534F0A42BFBE5328535F0A42BFBDF
:10030900E5318536F0A42BFBE5308537F0A42BFBCE
:100319008B338A3289318830D003D002D001D000A2
:10032900D0D0D0F0D0E022C0E0C0D0C000C001C021
:1003390002C003C0047C20E4F8F9FAFBC3E53033BA
:10034900F530E53133F531E53233F532E53333F55F
:1003590033E833F8E933F9EA33FAEB33FBC3E895C9
:1003690034E99535EA9536EB95374013E89534F835
:10037900E99535F9EA9536FAEB9537FB433001DC17
:10038900BBD004D003D002D001D000D0D0D0E0221D
:10039900C000A83F120113D000C000A83E120113EB
:1003A900D000C0E0742E1200C4D0E0C000A83D12F5
:1003B9000113D00022C000A83E120113D000C0E0F2
:1003C900742E1200C4D0E0C000A83D120113D00061
:1003D9002275AC0075AD0075B30075B40075B10038
:1003E90075B200438E1043878075985253C4DF530A
:1003F900890F438920758DF7D28EC28C438E08539D
:1004090089F043890175C80075CDD775CC7975C94F
:10041900A075CBD775CA79753000439B80D2CAD2F3
:10042900AF43B30253B4FD43AC0153ADFE53E8F0FF
:1004390043E80753E2F043E20175F60043F68043CF
:10044900F60143E10122C2CFC0D0C0E00530C3E5C7
:10045900319530B39292E530B464077530000532B6
:10046900D201D0E0D0D032C2AF75C7AA75C7554303
:100479009F0175C7AA75C75543A50175AF2275A711
:100489003F75A68075AEFF75C7AA75C75543A40108
:1004990075AF2175A73F75A6808534AE75C7AA7556
:1004A900C75543A40175A6818535AE75C7AA75C719
:1004B9005543A40175A6828536AE75C7AA75C75579
:1004C90043A40175A6838537AE75C7AA75C7554379
:1004D900A40175A68475AE5575C7AA75C75543A4F9
:1004E9000175A68575AEAA75C7AA75C75543A40136
:1004F90075C7AA75C75553A5FE75C7AA75C75553BC
:100509009FFED2AF22903F84E493B4551DA3E49398
:10051900B4AA17903F80E493F534A3E493F535A387
:10052900E493F536A3E493F5372275340175350262
:1005390075360375370422C28CC28D758CBF758AD6
:1005490028D28C308DFD22120540DAFB2253E8F0C7
:1005590043E800C2EFD2EE30EFFDD209D208D2074C
:10056900D206D205D204D203D202C3E5C394F04025
:1005790003C20922C3E5C394D04003C20822C3E5DC
:10058900C394B04003C20722C3E5C394904003C299
:100599000622C3E5C394704003C20522C3E5C39490
:1005A900504003C20422C3E5C394304003C203226E
:1005B900C3E5C394104003C202222275817F12034E
:1005C900DA1200CEC0E074011412010ED0E0C0832B
:1005D900C082C0E090002E120101D0E0D082D08309
:1005E900753B0075343275353C7536C875372D75D0
:1005F900380012055675E807C2EFD2EE30EFFDE577
:10060900C3C4C0E0540FF9D0E054F045C2F875E80E
:1006190001C2EFD2EE30EFFDE5C3C4C0E0540FFCD8
:10062900D0E054F045C2FB8B308C31753200753304
:100639000075347C7535C47536007537001202A310
:100649007534FF75350F753600753700120330752F
:1006590034D075356B75360075370012020F753455
:10066900647535007536007537001202A312012929
:10067900C0E0740C1412010ED0E01203BE1201B2D4
:1006890085303885313985323A85333B883089312F
:1006990075320075330075347C7535C4753600754F
:1006A90037001202A37534FF75350F75360075379B
:1006B90000120330753464753500753600753700DE
:1006C90012033075344575351475360075370012C7
:1006D90002A3853834853935853A36853B37120189
:1006E900EE120129C0E074031412010ED0E01203C6
:1006F9009975341075352775360075370012033032
:1007090085303985313A7A64120550E53BB40028C1
:10071900C0E074051412010CD0E0C083C082C0E0AF
:1007290090003F120101D0E0D082D08375310020C2
:100739000203753B010205FBB40134C0E0740514E2
:1007490012010CD0E0C083C082C0E09000471201C2
:1007590001D0E0D082D083C29675316475380075B6
:100769003464E534D395395003753B020205FBD255
:1007790096B4023AC0E074051412010CD0E0C083AB
:10078900C082C0E090004F120101D0E0D082D08336
:10079900753114E5382401F5387A32120550E535FA
:1007A900C395385003753B030205FB020716B403D2
:1007B9002FC0E074051412010CD0E0C083C082C0C0
:1007C900E0900057120101D0E0D082D083753164E6
:1007D900753800E536C395395003753B040205FBAE
:1007E900B40437C0E074051412010CD0E0C083C012
:1007F90082C0E090005F120101D0E0D082D0837501
:100809003114E5382401F5387A32120550E537C339
:1008190095385003753B050205FBB4058EC0E0749D
:10082900051412010CD0E0C083C082C0E0900067BB
:10083900120101D0E0D082D083753100743CC39598
:0C084900394003753B001204700205FBEF
:00000001FF
