:100000000205374F3D202020202020204A3D20207F
:1000100020202000636F6F6C0058003100320033E5
:05002000003400350072
:10002500C000788500D8FDD00022C000C001792825
:100035007868D8FED9FADAF6D001D00022D2941227
:100045000025C29422A2E79283A2E69282A2E592BB
:1000550081A2E49280120042120025A2E39283A2BB
:10006500E29282A2E19281A2E0928012004222D223
:100075009302004AC29302004AC294C0027A28122F
:10008500002FD00274331200797433120079743260
:100095001200797428120079740C12007974011217
:1000A5000079C0027A0212002FD00222E493600682
:1000B500120074A380F62244404480020079C0E017
:1000C500E8C4540F4430120074E8540F4430120051
:0400D50074D0E022E1
:1000D900C0E0C0D0C000C001C002E4F53CF53DF568
:1000E9003EF53FF5407A20E533A2E779047830E61A
:1000F90033F608D9FA7905783CE636D4F608D9F901
:10010900DAE5D002D001D000D0D0D0E022C0E0C0E2
:10011900D0C000C001C002E4F53CF53DF53EF53F15
:10012900F5407A20E533A2E779047830E633F6081A
:10013900D9FA7905783CC0D0E6243320E70224D0E7
:1001490020E30224FDD0D033F608D9EADAD6D0026A
:10015900D001D000D0D0D0E022C0E0C0D0C000C0D3
:1001690001C0027A207905C37840E613C0D030E790
:100179000224D030E30224FDF618D0D0D9EC79045A
:100189007833E613F618D9FADADBD002D001D000B9
:10019900D0D0D0E022C0E0C0D0E5302534F530E53C
:1001A900313535F531E5323536F532E5333537F563
:1001B90033D0D0D0E022C0E0C0D0C3E5309534F5CB
:1001C90030E5319535F531E5329536F532E533953A
:1001D90037F533D0D0D0E022C0E0C0D0C3E53095A8
:1001E90034E5319535E5329536E53395379200D0CA
:1001F900D0D0E022C0E0C0D0C3E5349530E53595D4
:1002090031E5369532E53795339200D0D0D0E022EA
:10021900C0E0C0D0C200C3E53495307014E535950F
:1002290031700EE53695327008E53795337002D294
:1002390000D0D0D0E0221202192000030201FD22D1
:100249001202192000030201E122C0E0C0F0C0D06F
:10025900C000C001C002C003E5308534F0A4F8A98C
:10026900F0E5318534F0A429F9E435F0FAE5308573
:1002790035F0A429F9E5F03AFAE433FBE53285349F
:10028900F0A42AFAE5F03BFBE5318535F0A42AFA1A
:10029900E5F03BFBE5308536F0A42AFAE5F03BFBB7
:1002A900E5338534F0A42BFBE5328535F0A42BFB2F
:1002B900E5318536F0A42BFBE5308537F0A42BFB1F
:1002C9008B338A3289318830D003D002D001D000F3
:1002D900D0D0D0F0D0E022C0E0C0D0C000C001C072
:1002E90002C003C0047C20E4F8F9FAFBC3E530330B
:1002F900F530E53133F531E53233F532E53333F5B0
:1003090033E833F8E933F9EA33FAEB33FBC3E89519
:1003190034E99535EA9536EB95374013E89534F885
:10032900E99535F9EA9536FAEB9537FB433001DC67
:10033900BBD004D003D002D001D000D0D0D0E0226D
:10034900C000A83F1200C3D000C000A83E1200C3DD
:10035900D000C0E0742E120074D0E0C000A83D1295
:1003690000C3D00022C000A83E1200C3D000C0E0E4
:10037900742E120074D0E0C000A83D1200C3D00052
:100389002275AC0075AD0075B30075B40075B10088
:1003990075B200438E1043878075985253C4DF535A
:1003A900890F438920758DF7D28EC28C438E0853ED
:1003B90089F043890143B30253B4FD43AC0153AD02
:1003C900FE53E8F043E80753E2F043E20175F60013
:1003D90043F68043F60143E10122C2AF75C7AA750E
:1003E900C755439F0175C7AA75C75543A50175AF81
:1003F9002275A73F75A68075AEFF75C7AA75C75543
:1004090043A40175AF2175A73F75A6808534AE75E4
:10041900C7AA75C75543A40175A6818535AE75C7A9
:10042900AA75C75543A40175A6828536AE75C7AAB4
:1004390075C75543A40175A6838537AE75C7AA75D7
:10044900C75543A40175A68475AE5575C7AA75C766
:100459005543A40175A68575AEAA75C7AA75C75572
:1004690043A40175C7AA75C75553A5FE75C7AA75D3
:10047900C755539FFED2AF22903F84E493B4551DD4
:10048900A3E493B4AA17903F80E493F534A3E493CB
:10049900F535A3E493F536A3E493F53722753401D2
:1004A90075350275360375370422C28CC28D758C79
:1004B900BF758A28D28C308DFD221204B3DAFB2253
:1004C90053E8F043E800C2EFD2EE30EFFDD209D293
:1004D90008D207D206D205D204D203D202C3E5C399
:1004E90094F04003C20922C3E5C394D04003C20873
:1004F90022C3E5C394B04003C20722C3E5C3949065
:100509004003C20622C3E5C394704003C20522C357
:10051900E5C394504003C20422C3E5C394304003A9
:10052900C20322C3E5C394104003C202222275818B
:100539007F12038A12007EC0E07401141200BED03B
:10054900E0C083C082C0E09000031200B1D0E0D0C7
:1005590082D083753B0075343275353C7536C87564
:10056900372D753800C20AC0E07410141200BCD0CF
:10057900E0C083C082C0E09000191200B1D0E0D081
:1005890082D083200640B20A200A10753B00C0E0E1
:100599007410141200BCD0E00205CFC0E07401143D
:1005A9001200BCD0E0C083C082C0E09000141200E9
:1005B900B1D0E0D082D083753B01C0E07410141231
:1005C90000BCD0E08000853B991204C975E807C2D8
:1005D900EFD2EE30EFFDE5C3C4C0E0540FF9D0E02F
:1005E90054F045C2F875E801C2EFD2EE30EFFDE5EF
:1005F900C3C4C0E0540FFCD0E054F045C2FB8B30BB
:100609008C3175320075330075347C7535C4753697
:10061900007537001202537534FF75350F753600B2
:100629007537001202E07534D075356B7536007573
:1006390037001201BF75346475350075360075379A
:10064900001202531200D9C0E0740C141200BED07B
:10065900E012036E12016285303885313985323AEC
:1006690085333B8830893175320075330075347CA8
:100679007535C47536007537001202537534FF7528
:10068900350F7536007537001202E075346475351B
:10069900007536007537001202E07534457535145A
:1006A900753600753700120253853834853935851A
:1006B9003A36853B3712019E1200D9C0E074031403
:1006C9001200BED0E012034975341075352775360E
:1006D900007537001202E085303985313A7A6412A3
:1006E90004C38000E53BB40022753100C0E07410FA
:1006F900141200BCD0E0C083C082C0E0900019127F
:1007090000B1D0E0D082D08302058CB40134C0E0BE
:100719007410141200BCD0E0C083C082C0E0900005
:100729001B1200B1D0E0D082D083C29675316475B6
:100739003800753464E534D395395003753B0202AA
:10074900058CD296B4023AC0E07410141200BCD0E1
:10075900E0C083C082C0E090001D1200B1D0E0D09B
:1007690082D083753114E5382401F5387A321204C0
:10077900C3E535C395385003753B0302058C020662
:10078900EFB4032FC0E07410141200BCD0E0C08392
:10079900C082C0E090001F1200B1D0E0D082D083A7
:1007A900753164753800E536C395395003753B04D6
:1007B90002058CB40437C0E07410141200BCD0E0F8
:1007C900C083C082C0E09000211200B1D0E0D08285
:1007D900D083753114E5382401F5387A321204C30F
:1007E900E537C395385003753B0502058CB4058E72
:1007F900C0E07410141200BCD0E0C083C082C0E015
:100809009000231200B1D0E0D082D08375310074FA
:0F0819003CC395394003753B001203E302058C85
:00000001FF
