:100000000205564F3D202020202020204A3D202060
:100010002020200053746174652030005374617493
:10002000652031005374617465203200537461742B
:100030006520330053746174652034005374617417
:040040006520350002
:10004400C000788500D8FDD00022C000C001792806
:100054007868D8FED9FADAF6D001D00022D2941208
:100064000044C29422A2E79283A2E69282A2E5927D
:1000740081A2E49280120061120044A2E39283A25E
:10008400E29282A2E19281A2E0928012006122D2E5
:1000940093020069C293020069C294C0027A2812D2
:1000A400004ED002743312009874331200987432E4
:1000B4001200987428120098740C1200987401129B
:1000C4000098C0027A0212004ED00222E493600625
:1000D400120093A380F62244404480020098C0E0BA
:1000E400E8C4540F4430120093E8540F4430120013
:0400F40093D0E022A3
:1000F800C0E0C0D0C000C001C002E4F53CF53DF549
:100108003EF53FF5407A20E533A2E779047830E6FA
:1001180033F608D9FA7905783CE636D4F608D9F9E1
:10012800DAE5D002D001D000D0D0D0E022C0E0C0C3
:10013800D0C000C001C002E4F53CF53DF53EF53FF6
:10014800F5407A20E533A2E779047830E633F608FB
:10015800D9FA7905783CC0D0E6243320E70224D0C8
:1001680020E30224FDD0D033F608D9EADAD6D0024B
:10017800D001D000D0D0D0E022C0E0C0D0C000C0B4
:1001880001C0027A207905C37840E613C0D030E771
:100198000224D030E30224FDF618D0D0D9EC79043B
:1001A8007833E613F618D9FADADBD002D001D0009A
:1001B800D0D0D0E022C0E0C0D0E5302534F530E51D
:1001C800313535F531E5323536F532E5333537F544
:1001D80033D0D0D0E022C0E0C0D0C3E5309534F5AC
:1001E80030E5319535F531E5329536F532E533951B
:1001F80037F533D0D0D0E022C0E0C0D0C3E5309589
:1002080034E5319535E5329536E53395379200D0AA
:10021800D0D0E022C0E0C0D0C3E5349530E53595B4
:1002280031E5369532E53795339200D0D0D0E022CB
:10023800C0E0C0D0C200C3E53495307014E53595F0
:1002480031700EE53695327008E53795337002D275
:1002580000D0D0D0E02212023820000302021C2273
:1002680012023820000302020022C0E0C0F0C0D011
:10027800C000C001C002C003E5308534F0A4F8A96D
:10028800F0E5318534F0A429F9E435F0FAE5308554
:1002980035F0A429F9E5F03AFAE433FBE532853480
:1002A800F0A42AFAE5F03BFBE5318535F0A42AFAFB
:1002B800E5F03BFBE5308536F0A42AFAE5F03BFB98
:1002C800E5338534F0A42BFBE5328535F0A42BFB10
:1002D800E5318536F0A42BFBE5308537F0A42BFB00
:1002E8008B338A3289318830D003D002D001D000D4
:1002F800D0D0D0F0D0E022C0E0C0D0C000C001C053
:1003080002C003C0047C20E4F8F9FAFBC3E53033EB
:10031800F530E53133F531E53233F532E53333F590
:1003280033E833F8E933F9EA33FAEB33FBC3E895FA
:1003380034E99535EA9536EB95374013E89534F866
:10034800E99535F9EA9536FAEB9537FB433001DC48
:10035800BBD004D003D002D001D000D0D0D0E0224E
:10036800C000A83F1200E2D000C000A83E1200E280
:10037800D000C0E0742E120093D0E0C000A83D1257
:1003880000E2D00022C000A83E1200E2D000C0E087
:10039800742E120093D0E0C000A83D1200E2D000F5
:1003A8002275AC0075AD0075B30075B40075B10069
:1003B80075B200438E1043878075985253C4DF533B
:1003C800890F438920758DF7D28EC28C438E0853CE
:1003D80089F043890143B30253B4FD43AC0153ADE3
:1003E800FE53E8F043E80753E2F043E20175F600F4
:1003F80043F68043F60143E10122C2AF75C7AA75EF
:10040800C755439F0175C7AA75C75543A50175AF61
:100418002275A73F75A68075AEFF75C7AA75C75523
:1004280043A40175AF2175A73F75A6808543AE75B6
:10043800C7AA75C75543A40175A6818544AE75C77B
:10044800AA75C75543A40175A6828545AE75C7AA86
:1004580075C75543A40175A6838546AE75C7AA75A9
:10046800C75543A40175A68475AE5575C7AA75C747
:100478005543A40175A68575AEAA75C7AA75C75553
:1004880043A40175C7AA75C75553A5FE75C7AA75B4
:10049800C755539FFED2AF22903F84E493B4551DB5
:1004A800A3E493B4AA17903F80E493F543A3E4939D
:1004B800F544A3E493F545A3E493F5462275430177
:1004C80075440275450375460422C28CC28D758C2D
:1004D800BF758A28D28C308DFD221204D2DAFB2215
:1004E80053E8F043E800C2EFD2EE30EFFDD208D275
:1004F80007D206D205D204D203D202D201C3E5C381
:1005080094F04003C20822C3E5C394D04003C20755
:1005180022C3E5C394B04003C20622C3E5C3949046
:100528004003C20522C3E5C394704003C20422C33A
:10053800E5C394504003C20322C3E5C3943040038B
:10054800C20222C3E5C394104003C201222275816E
:100558007F1203A912009DC0E07401141200DDD0BF
:10056800E0C083C082C0E09000031200D0D0E0D089
:1005780082D083754A0075433275443C7545C87509
:10058800462D7547001204E875E807C2EFD2EE3031
:10059800EFFDE5C3C4C0E0540FF9D0E054F045C204
:1005A800F875E801C2EFD2EE30EFFDE5C3C4C0E054
:1005B800540FFCD0E054F045C2FB8B308C317532BF
:1005C8000075330075347C7535C475360075370091
:1005D8001202727534FF75350F75360075370012C3
:1005E80002FF7534D075356B75360075370012010A
:1005F800DE75346475350075360075370012027281
:100608001200F8C0E0740C141200DDD0E012038D63
:1006180012018185303885313985323A85333B88F6
:1006280030893175320075330075347C7535C47581
:1006380036007537001202727534FF75350F75363E
:10064800007537001202FF75346475350075360081
:100658007537001202FF7534457535147536007507
:100668003700120272853834853935853A36853B2C
:10067800371201BD1200F8C0E07403141200DDD077
:10068800E012036875341075352775360075370024
:100698001202FF8530488531497A641204E2E54A3E
:1006A800B40028C0E07405141200DBD0E0C083C099
:1006B80082C0E09000141200D0D0E0D082D08375C0
:1006C8004100200103754A0102058DB40134C0E0E0
:1006D8007405141200DBD0E0C083C082C0E0900033
:1006E8001C1200D0D0E0D082D083C29675416475C8
:1006F8004700754364E543D395485003754A0202A1
:10070800058DD296B4023AC0E07405141200DBD00D
:10071800E0C083C082C0E09000241200D0D0E0D0B6
:1007280082D083754114E5472401F5477A321204D3
:10073800E2E544C395475003754A0302058D020656
:10074800A8B4032FC0E07405141200DBD0E0C08306
:10075800C082C0E090002C1200D0D0E0D082D083BC
:10076800754164754700E545C395485003754A04CB
:1007780002058DB40437C0E07405141200DBD0E024
:10078800C083C082C0E09000341200D0D0E0D08294
:10079800D083754114E5472401F5477A321204E203
:1007A800E546C395475003754A0502058DB4058E85
:1007B800C0E07405141200DBD0E0C083C082C0E042
:1007C80090003C1200D0D0E0D082D08375410074F4
:0F07D8003CC395484003754A0012040202058D88
:00000001FF
