:100000000205324F3D202020202020204A3D202084
:100010002020200030003100320033003400350051
:10002000C000788500D8FDD00022C000C00179282A
:100030007868D8FED9FADAF6D001D00022D294122C
:100040000020C29422A2E79283A2E69282A2E592C5
:1000500081A2E4928012003D120020A2E39283A2CA
:10006000E29282A2E19281A2E0928012003D22D22D
:1000700093020045C293020045C294C0027A28123E
:10008000002AD00274331200747433120074743274
:100090001200747428120074740C1200747401122B
:1000A0000074C0027A0212002AD00222E493600691
:1000B00012006FA380F62244404480020074C0E026
:1000C000E8C4540F443012006FE8540F443012005B
:0400D0006FD0E022EB
:1000D400C0E0C0D0C000C001C002E4F53CF53DF56D
:1000E4003EF53FF5407A20E533A2E779047830E61F
:1000F40033F608D9FA7905783CE636D4F608D9F906
:10010400DAE5D002D001D000D0D0D0E022C0E0C0E7
:10011400D0C000C001C002E4F53CF53DF53EF53F1A
:10012400F5407A20E533A2E779047830E633F6081F
:10013400D9FA7905783CC0D0E6243320E70224D0EC
:1001440020E30224FDD0D033F608D9EADAD6D0026F
:10015400D001D000D0D0D0E022C0E0C0D0C000C0D8
:1001640001C0027A207905C37840E613C0D030E795
:100174000224D030E30224FDF618D0D0D9EC79045F
:100184007833E613F618D9FADADBD002D001D000BE
:10019400D0D0D0E022C0E0C0D0E5302534F530E541
:1001A400313535F531E5323536F532E5333537F568
:1001B40033D0D0D0E022C0E0C0D0C3E5309534F5D0
:1001C40030E5319535F531E5329536F532E533953F
:1001D40037F533D0D0D0E022C0E0C0D0C3E53095AD
:1001E40034E5319535E5329536E53395379202D0CD
:1001F400D0D0E022C0E0C0D0C3E5349530E53595D9
:1002040031E5369532E53795339202D0D0D0E022ED
:10021400C0E0C0D0C202C3E53495307014E5359512
:1002240031700EE53695327008E53795337002D299
:1002340002D0D0D0E0221202142002030201F822DC
:100244001202142002030201DC22C0E0C0F0C0D07C
:10025400C000C001C002C003E5308534F0A4F8A991
:10026400F0E5318534F0A429F9E435F0FAE5308578
:1002740035F0A429F9E5F03AFAE433FBE5328534A4
:10028400F0A42AFAE5F03BFBE5318535F0A42AFA1F
:10029400E5F03BFBE5308536F0A42AFAE5F03BFBBC
:1002A400E5338534F0A42BFBE5328535F0A42BFB34
:1002B400E5318536F0A42BFBE5308537F0A42BFB24
:1002C4008B338A3289318830D003D002D001D000F8
:1002D400D0D0D0F0D0E022C0E0C0D0C000C001C077
:1002E40002C003C0047C20E4F8F9FAFBC3E5303310
:1002F400F530E53133F531E53233F532E53333F5B5
:1003040033E833F8E933F9EA33FAEB33FBC3E8951E
:1003140034E99535EA9536EB95374013E89534F88A
:10032400E99535F9EA9536FAEB9537FB433001DC6C
:10033400BBD004D003D002D001D000D0D0D0E02272
:10034400C000A83F1200BED000C000A83E1200BEEC
:10035400D000C0E0742E12006FD0E0C000A83D129F
:1003640000BED00022C000A83E1200BED000C0E0F3
:10037400742E12006FD0E0C000A83D1200BED00061
:100384002275AC0075AD0075B30075B40075B1008D
:1003940075B200438E1043878075985253C4DF535F
:1003A400890F438920758DF7D28EC28C438E0853F2
:1003B40089F043890143B30253B4FD43AC0153AD07
:1003C400FE53E8F043E80753E2F043E20175F60018
:1003D40043F68043F60143E10122C2AF75C7AA7513
:1003E400C755439F0175C7AA75C75543A50175AF86
:1003F4002275A73F75A68075AEFF75C7AA75C75548
:1004040043A40175AF2175A73F75A6808543AE75DA
:10041400C7AA75C75543A40175A6818544AE75C79F
:10042400AA75C75543A40175A6828545AE75C7AAAA
:1004340075C75543A40175A6838546AE75C7AA75CD
:10044400C75543A40175A68475AE5575C7AA75C76B
:100454005543A40175A68575AEAA75C7AA75C75577
:1004640043A40175C7AA75C75553A5FE75C7AA75D8
:10047400C755539FFED2AF22903F84E493B4551DD9
:10048400A3E493B4AA17903F80E493F543A3E493C1
:10049400F544A3E493F545A3E493F546227543019B
:1004A40075440275450375460422C28CC28D758C51
:1004B400BF758A28D28C308DFD221204AEDAFB225D
:1004C40053E8F043E800C2EFD2EE30EFFDD20AD297
:1004D40009D208D207D206D205D204D203C3E5C397
:1004E40094F04003C20A22C3E5C394D04003C20976
:1004F40022C3E5C394B04003C20822C3E5C3949069
:100504004003C20722C3E5C394704003C20622C35A
:10051400E5C394504003C20522C3E5C394304003AD
:10052400C20422C3E5C394104003C203222275818E
:100534007F120385120079C0E07401141200B9D04F
:10054400E0C083C082C0E09000031200ACD0E0D0D1
:1005540082D083754A0075433275443C75450075F5
:10056400462D754700C200C201200A02B2002000D5
:100574000302059220090AE5469401D4F5460205D2
:100584009220080AE5462401D4F546020592200784
:1005940002B2012001030205B720060AE5449401D2
:1005A400D4F5440205B72005E5E5442401D4F54417
:1005B4000205B7C0E07406141200B7D0E0C000A86A
:1005C400461200BED000C0E0740D141200B7D0E093
:1005D400C000A8441200BED00020030FE54AB400B6
:1005E40005754A018005754A0080001204C475E847
:1005F40007C2EFD2EE30EFFDE5C3C4C0E0540FF9FB
:10060400D0E054F045C2F875E801C2EFD2EE30EF05
:10061400FDE5C3C4C0E0540FFCD0E054F045C2FB78
:100624008B308C3175320075330075347C7535C46C
:1006340075360075370012024E7534FF75350F7527
:1006440036007537001202DB7534D075356B75369C
:10065400007537001201BA753464753500753600BB
:1006640075370012024E1200D4C0E0740C1412004C
:10067400B9D0E012036912015D85303885313985BE
:10068400323A85333B8830893175320075330075D1
:10069400347C7535C475360075370012024E7534D6
:1006A400FF75350F7536007537001202DB7534643B
:1006B4007535007536007537001202DB75344575E3
:1006C400351475360075370012024E853834853975
:1006D40035853A36853B371201991200D4C0E0744F
:1006E40003141200B9D0E012034475341075352791
:1006F4007536007537001202DB8530488531497A3A
:10070400641204BEE54AB40022C0E074101412005E
:10071400B7D0E0C083C082C0E09000141200ACD017
:10072400E0D082D08375410002056DB40134C0E08D
:100734007410141200B7D0E0C083C082C0E09000EF
:10074400161200ACD0E0D082D083C2967541647595
:100754004700754364E543D395485003754A020244
:10076400056DD296B4023AC0E07410141200B7D0EA
:10077400E0C083C082C0E09000181200ACD0E0D08A
:1007840082D083754114E5472401F5477A32120477
:10079400BEE544C395475003754A0302056D02073D
:1007A4000AB4032FC0E07410141200B7D0E0C08361
:1007B400C082C0E090001A1200ACD0E0D082D08396
:1007C400754164754700E545C395485003754A046F
:1007D40002056DB40437C0E07410141200B7D0E001
:1007E400C083C082C0E090001C1200ACD0E0D08274
:1007F400D083754114E5472401F5477A321204BECB
:10080400E546C395475003754A0502056DB4058E48
:10081400C0E07410141200B7D0E0C083C082C0E0FE
:1008240090001E1200ACD0E0D082D08375410074D9
:0F0834003CC395484003754A001203DE02056D70
:00000001FF
