:1000000002034B546F3D202020432020546A3D20A2
:040010002020430069
:10001400C000788500D8FDD00022C000C001792836
:100024007868D8FED9FADAF6D001D00022D2941238
:100034000014C29422A2E79283A2E69282A2E592DD
:1000440081A2E49280120031120014A2E39283A2EE
:10005400E29282A2E19281A2E0928012003122D245
:1000640093020039C293020039C294C0027A281262
:10007400001ED002743312006874331200687432A4
:100084001200687428120068740C1200687401125B
:100094000068C0027A0212001ED00222E4936006B5
:1000A400120063A380F62244404480020068C0E04A
:1000B400E8C4540F4430120063E8540F4430120073
:0400C40063D0E02203
:1000C800C0E0C0D0C000C001C002E4F538F539F581
:1000D8003AF53BF53C7A20E533A2E779047830E637
:1000E80033F608D9FA79057838E636D4F608D9F916
:1000F800DAE5D002D001D000D0D0D0E022C0E0C0F4
:10010800D0C000C001C002E4F538F539F53AF53B36
:10011800F53C7A20E533A2E779047830E633F6082F
:10012800D9FA79057838C0D0E6243320E70224D0FC
:1001380020E30224FDD0D033F608D9EADAD6D0027B
:10014800D001D000D0D0D0E022C0E0C0D0C000C0E4
:1001580001C0027A207905C3783CE613C0D030E7A5
:100168000224D030E30224FDF618D0D0D9EC79046B
:100178007833E613F618D9FADADBD002D001D000CA
:10018800D0D0D0E022C0E0C0D0E5302534F530E54D
:10019800313535F531E5323536F532E5333537F574
:1001A80033D0D0D0E022C0E0C0D0C3E5309534F5DC
:1001B80030E5319535F531E5329536F532E533954B
:1001C80037F533D0D0D0E022C0E0C0D0C3E53095B9
:1001D80034E5319535E5329536E53395379200D0DB
:1001E800D0D0E022C0E0C0D0C3E5349530E53595E5
:1001F80031E5369532E53795339200D0D0D0E022FC
:10020800C0E0C0D0C200C3E53495307014E5359520
:1002180031700EE53695327008E53795337002D2A5
:1002280000D0D0D0E0221202082000030201EC2204
:100238001202082000030201D022C0E0C0F0C0D0A2
:10024800C000C001C002C003E5308534F0A4F8A99D
:10025800F0E5318534F0A429F9E435F0FAE5308584
:1002680035F0A429F9E5F03AFAE433FBE5328534B0
:10027800F0A42AFAE5F03BFBE5318535F0A42AFA2B
:10028800E5F03BFBE5308536F0A42AFAE5F03BFBC8
:10029800E5338534F0A42BFBE5328535F0A42BFB40
:1002A800E5318536F0A42BFBE5308537F0A42BFB30
:1002B8008B338A3289318830D003D002D001D00004
:1002C800D0D0D0F0D0E022C0E0C0D0C000C001C083
:1002D80002C003C0047C20E4F8F9FAFBC3E530331C
:1002E800F530E53133F531E53233F532E53333F5C1
:1002F80033E833F8E933F9EA33FAEB33FBC3E8952B
:1003080034E99535EA9536EB95374013E89534F896
:10031800E99535F9EA9536FAEB9537FB433001DC78
:10032800BBD004D003D002D001D000D0D0D0E0227E
:1003380075AC0075AD0075B30075B40075B1007586
:10034800B2002275817F12033812006DC0E074017B
:10035800141200ADD0E0C083C082C0E09000031248
:0803680000A0D0E0D082D08398
:00000001FF
