:030000000205D521
:10002B000204584F3D202020202020204A3D202034
:10003B00202020002C0073007200300031003200B1
:06004B0033003400350013
:10005100C000788500D8FDD00022C000C0017928F9
:100061007868D8FED9FADAF6D001D00022D29412FB
:100071000051C29422A2E79283A2E69282A2E59263
:1000810081A2E4928012006E120051A2E39283A237
:10009100E29282A2E19281A2E0928012006E22D2CB
:1000A10093020076C293020076C294C0027A2812AB
:1000B100005BD00274331200A574331200A57432B0
:1000C1001200A574281200A5740C1200A574011267
:1000D10000A5C0027A0212005BD00222E4936006FE
:1000E1001200A0A380F622444044800200A5C0E093
:1000F100E8C4540F44301200A0E8540F44301200F9
:04010100A0D0E02288
:10010500C0E0C0D0C000C001C002E4F53CF53DF53B
:100115003EF53FF5407A20E533A2E779047830E6ED
:1001250033F608D9FA7905783CE636D4F608D9F9D4
:10013500DAE5D002D001D000D0D0D0E022C0E0C0B6
:10014500D0C000C001C002E4F53CF53DF53EF53FE9
:10015500F5407A20E533A2E779047830E633F608EE
:10016500D9FA7905783CC0D0E6243320E70224D0BB
:1001750020E30224FDD0D033F608D9EADAD6D0023E
:10018500D001D000D0D0D0E022C0E0C0D0C000C0A7
:1001950001C0027A207905C37840E613C0D030E764
:1001A5000224D030E30224FDF618D0D0D9EC79042E
:1001B5007833E613F618D9FADADBD002D001D0008D
:1001C500D0D0D0E022C0E0C0D0E5302534F530E510
:1001D500313535F531E5323536F532E5333537F537
:1001E50033D0D0D0E022C0E0C0D0C3E5309534F59F
:1001F50030E5319535F531E5329536F532E533950E
:1002050037F533D0D0D0E022C0E0C0D0C3E530957B
:1002150034E5319535E5329536E53395379202D09B
:10022500D0D0E022C0E0C0D0C3E5349530E53595A7
:1002350031E5369532E53795339202D0D0D0E022BC
:10024500C0E0C0D0C202C3E53495307014E53595E1
:1002550031700EE53695327008E53795337002D268
:1002650002D0D0D0E0221202452002030202292248
:1002750012024520020302020D22C0E0C0F0C0D0E8
:10028500C000C001C002C003E5308534F0A4F8A960
:10029500F0E5318534F0A429F9E435F0FAE5308547
:1002A50035F0A429F9E5F03AFAE433FBE532853473
:1002B500F0A42AFAE5F03BFBE5318535F0A42AFAEE
:1002C500E5F03BFBE5308536F0A42AFAE5F03BFB8B
:1002D500E5338534F0A42BFBE5328535F0A42BFB03
:1002E500E5318536F0A42BFBE5308537F0A42BFBF3
:1002F5008B338A3289318830D003D002D001D000C7
:10030500D0D0D0F0D0E022C0E0C0D0C000C001C045
:1003150002C003C0047C20E4F8F9FAFBC3E53033DE
:10032500F530E53133F531E53233F532E53333F583
:1003350033E833F8E933F9EA33FAEB33FBC3E895ED
:1003450034E99535EA9536EB95374013E89534F859
:10035500E99535F9EA9536FAEB9537FB433001DC3B
:10036500BBD004D003D002D001D000D0D0D0E02241
:1003750075F0648444301200A0E5F075F00A8444F9
:10038500301200A0E5F044301200A02275F00A8476
:1003950044301200A0E5F044301200A022C000A8AD
:1003A5003F1200EFD000C000A83E1200EFD000C001
:1003B500E0742E1200A0D0E0C000A83D1200EFD0DE
:1003C5000022C000A83E1200EFD000C0E0742E123B
:1003D50000A0D0E0C000A83D1200EFD0002275AC0F
:1003E5000075AD0075B30075B40075B10075B20048
:1003F500438E1043878075985253C4DF53890F434A
:100405008920758DF7D28EC28C438E085389F043AF
:10041500890175C80075CDD775CC7975C9A075CB1F
:10042500D775CA79754C00439B80D2CAD2AF43B306
:100435000253B4FD43AC0153ADFE53E8F043E80766
:1004450053E2F043E20175F60043F68043F60143BB
:10045500E10122C2CFC0D0C0E0054CC3E541954CB7
:10046500B39292E54CB46407754C00054DD20BD0A0
:10047500E0D0D032C2AF75C7AA75C755439F017585
:10048500C7AA75C75543A50175AF2275A73F75A6C0
:100495008075AEFF75C7AA75C75543A40175AF2111
:1004A50075A73F75A6808543AE75C7AA75C7554321
:1004B500A40175A6818544AE75C7AA75C75543A421
:1004C5000175A6828545AE75C7AA75C75543A401B2
:1004D50075A6838546AE75C7AA75C75543A401752C
:1004E500A68475AE5575C7AA75C75543A40175A6EB
:1004F5008575AEAA75C7AA75C75543A40175C7AA60
:1005050075C75553A5FE75C7AA75C755539FFED226
:10051500AF22903F84E493B4551DA3E493B4AA1786
:10052500903F80E493F543A3E493F544A3E493F566
:1005350045A3E493F54622754301754402754503C9
:10054500754604223099FDC299F59922C28CC28D57
:10055500758CBF758A28D28C308DFD22120551DA33
:10056500FB2253E8F043E800C2EFD2EE30EFFDD2B4
:100575000AD209D208D207D206D205D204D203C3C1
:10058500E5C394F04003C20A22C3E5C394D04003F7
:10059500C20922C3E5C394B04003C20822C3E5C320
:1005A50094904003C20722C3E5C394704003C2067A
:1005B50022C3E5C394504003C20522C3E5C394306A
:1005C5004003C20422C3E5C394104003C2032222A0
:1005D50075817F1203E31200AAC0E07401141200B2
:1005E500EAD0E0C083C082C0E090002E1200DDD0CA
:1005F500E0D082D083C0E07401141200E8D0E0C0DE
:1006050083C082C0E09000431200DDD0E0D082D0EC
:1006150083C0E07405141200E8D0E0C083C082C036
:10062500E090003F1200DDD0E0D082D083C0E074BE
:1006350008141200E8D0E0C083C082C0E0900041F9
:100645001200DDD0E0D082D083C0E0740C1412001B
:10065500E8D0E0C083C082C0E090003F1200DDD04A
:10066500E0D082D083754B007543C875443C754511
:10067500EB75462D754700754800C200C20120077D
:1006850002B20120011020040515430206B520051C
:100695001F05430206B520040AE5442499D4F54410
:1006A5000206B520050AE5442401D4F5440206B541
:1006B500200A02B20020001020090515450206E7B0
:1006C50020081F05450206E720090AE5462499D4B6
:1006D500F5460206E720080AE5462401D4F5460258
:1006E50006E7E545C0E07402141200E8D0E0120305
:1006F50075E4E543C0E07409141200E8D0E0120384
:1007050075E4E546C0E07406141200E8D0E0120373
:1007150091E4E544C0E0740D141200E8D0E0120342
:100725009120030FE54BB40005754B018005754B12
:1007350000800012056775E807C2EFD2EE30EFFDC5
:10074500E5C3C4C0E0540FF9D0E054F045C2F875D4
:10075500E801C2EFD2EE30EFFDE5C3C4C0E0540FAF
:10076500FCD0E054F045C2FB8B308C3175320075FE
:10077500330075347C7535C4753600753700120243
:100785007F7534FF75350F75360075370012030C0C
:100795007534D075356B7536007537001201EB75FC
:1007A500346475350075360075370012027F120105
:1007B50005C0E0740C141200EAD0E01203C7120160
:1007C5008E85303885313985323A85333B88308995
:1007D5003175320075330075347C7535C475360056
:1007E50075370012027F7534FF75350F7536007544
:1007F500370012030C75346475350075360075378E
:100805000012030C753445753514753600753700BF
:1008150012027F853834853935853A36853B37125E
:1008250001CA120105C0E07403141200EAD0E012F7
:1008350003A2C0E0E53FC4540F4430120549E53F2B
:10084500540F4430120549E53EC4540F4430120597
:1008550049E53E540F4430120549D0E0E53DC45406
:100865000F443012054975341075352775360075F6
:10087500370012030C85304985314A7A64120561C7
:10088500E54BB40028C0E07410141200E8D0E0C0B5
:1008950083C082C0E09000451200DDD0E0D082D058
:1008A5008375410075470075480002068312047977
:1008B5000208B8B40154C0E07410141200E8D0E086
:1008C500C083C082C0E09000471200DDD0E0D08236
:1008D500D083C296754164E5472401F547743CC34E
:1008E50095475016E5482401F5487547007408C337
:1008F50095485006754B00020683E543D39549504C
:1009050006754800754B02020683D296B40245C0AF
:10091500E07410141200E8D0E0C083C082C0E090FB
:1009250000491200DDD0E0D082D083754114E5473F
:100935002401F547E544C395475013E5482401F5DF
:10094500487547007405C395485003754B03020667
:1009550083020887B40332C0E07410141200E8D093
:10096500E0C083C082C0E090004B1200DDD0E0D033
:1009750082D083754164754700754800E545C39588
:10098500495003754B04020683B40442C0E0741059
:10099500141200E8D0E0C083C082C0E090004D1280
:1009A50000DDD0E0D082D083754114E5472401F500
:1009B50047E546C395475013E5482401F548754773
:1009C500007405C395485003754B05020683B405AD
:1009D50080C0E07410141200E8D0E0C083C082C06B
:1009E500E090004F1200DDD0E0D082D08375410049
:1009F500743CC395494003754B0012047902068384
:00000001FF
