:030000000205C432
:10002B000204474F3D202020202020204A3D202045
:10003B00202020002C0073007200300031003200B1
:06004B0033003400350013
:10005100C000788500D8FDD00022C000C0017928F9
:100061007868D8FED9FADAF6D001D00022D29412FB
:100071000051C29422A2E79283A2E69282A2E59263
:1000810081A2E4928012006E120051A2E39283A237
:10009100E29282A2E19281A2E0928012006E22D2CB
:1000A10093020076C293020076C294C0027A2812AB
:1000B100005BD00274331200A574331200A57432B0
:1000C1001200A574281200A5740C1200A574011267
:1000D10000A5C0027A0212005BD00222E4936006FE
:1000E1001200A0A380F622444044800200A5C0E093
:1000F100E8C4540F44301200A0E8540F44301200F9
:04010100A0D0E02288
:10010500C0E0C0D0C000C001C002E4F53CF53DF53B
:100115003EF53FF5407A20E533A2E779047830E6ED
:1001250033F608D9FA7905783CE636D4F608D9F9D4
:10013500DAE5D002D001D000D0D0D0E022C0E0C0B6
:10014500D0C000C001C002E4F53CF53DF53EF53FE9
:10015500F5407A20E533A2E779047830E633F608EE
:10016500D9FA7905783CC0D0E6243320E70224D0BB
:1001750020E30224FDD0D033F608D9EADAD6D0023E
:10018500D001D000D0D0D0E022C0E0C0D0C000C0A7
:1001950001C0027A207905C37840E613C0D030E764
:1001A5000224D030E30224FDF618D0D0D9EC79042E
:1001B5007833E613F618D9FADADBD002D001D0008D
:1001C500D0D0D0E022C0E0C0D0E5302534F530E510
:1001D500313535F531E5323536F532E5333537F537
:1001E50033D0D0D0E022C0E0C0D0C3E5309534F59F
:1001F50030E5319535F531E5329536F532E533950E
:1002050037F533D0D0D0E022C0E0C0D0C3E530957B
:1002150034E5319535E5329536E53395379202D09B
:10022500D0D0E022C0E0C0D0C3E5349530E53595A7
:1002350031E5369532E53795339202D0D0D0E022BC
:10024500C0E0C0D0C202C3E53495307014E53595E1
:1002550031700EE53695327008E53795337002D268
:1002650002D0D0D0E0221202452002030202292248
:1002750012024520020302020D22C0E0C0F0C0D0E8
:10028500C000C001C002C003E5308534F0A4F8A960
:10029500F0E5318534F0A429F9E435F0FAE5308547
:1002A50035F0A429F9E5F03AFAE433FBE532853473
:1002B500F0A42AFAE5F03BFBE5318535F0A42AFAEE
:1002C500E5F03BFBE5308536F0A42AFAE5F03BFB8B
:1002D500E5338534F0A42BFBE5328535F0A42BFB03
:1002E500E5318536F0A42BFBE5308537F0A42BFBF3
:1002F5008B338A3289318830D003D002D001D000C7
:10030500D0D0D0F0D0E022C0E0C0D0C000C001C045
:1003150002C003C0047C20E4F8F9FAFBC3E53033DE
:10032500F530E53133F531E53233F532E53333F583
:1003350033E833F8E933F9EA33FAEB33FBC3E895ED
:1003450034E99535EA9536EB95374013E89534F859
:10035500E99535F9EA9536FAEB9537FB433001DC3B
:10036500BBD004D003D002D001D000D0D0D0E02241
:1003750075F0648444301200A0E5F075F00A8444F9
:10038500301200A0E5F044301200A022C000A83FC2
:100395001200EFD000C000A83E1200EFD000C0E070
:1003A500742E1200A0D0E0C000A83D1200EFD000CE
:1003B50022C000A83E1200EFD000C0E0742E12004B
:1003C500A0D0E0C000A83D1200EFD0002275AC001F
:1003D50075AD0075B30075B40075B10075B2004315
:1003E5008E1043878075985253C4DF53890F438914
:1003F50020758DF7D28EC28C438E085389F04389C0
:100405000175C80075CDD775CC7975C9A075CBD7E1
:1004150075CA79754B00439B80D2CAD2AF43B302EC
:1004250053B4FD43AC0153ADFE53E8F043E8075325
:10043500E2F043E20175F60043F68043F60143E13D
:100445000122C2CFC0D0C0E0054BC3E541954BB3F7
:100455009292E54BB46407754B00054CD20BD0E086
:10046500D0D032C2AF75C7AA75C755439F0175C7AE
:10047500AA75C75543A50175AF2275A73F75A68017
:1004850075AEFF75C7AA75C75543A40175AF21752C
:10049500A73F75A6808543AE75C7AA75C75543A402
:1004A5000175A6818544AE75C7AA75C75543A401D4
:1004B50075A6828545AE75C7AA75C75543A401754E
:1004C500A6838546AE75C7AA75C75543A40175A60B
:1004D5008475AE5575C7AA75C75543A40175A6851C
:1004E50075AEAA75C7AA75C75543A40175C7AA7580
:1004F500C75553A5FE75C7AA75C755539FFED2AFFD
:1005050022903F84E493B4551DA3E493B4AA1790B5
:100515003F80E493F543A3E493F544A3E493F545C1
:10052500A3E493F5462275430175440275450375A9
:100535004604223099FDC299F59922C28CC28D7567
:100545008CBF758A28D28C308DFD22120540DAFBCE
:100555002253E8F043E800C2EFD2EE30EFFDD20AB5
:10056500D209D208D207D206D205D204D203C3E5F6
:10057500C394F04003C20A22C3E5C394D04003C22A
:100585000922C3E5C394B04003C20822C3E5C3945E
:10059500904003C20722C3E5C394704003C20622FC
:1005A500C3E5C394504003C20522C3E5C39430405C
:1005B50003C20422C3E5C394104003C2032222757B
:1005C500817F1203D21200AAC0E07401141200EA5E
:1005D500D0E0C083C082C0E090002E1200DDD0E0E4
:1005E500D082D083C0E07401141200E8D0E0C0834B
:1005F500C082C0E09000431200DDD0E0D082D083FD
:10060500C0E07405141200E8D0E0C083C082C0E0E9
:1006150090003F1200DDD0E0D082D083C0E07408A6
:10062500141200E8D0E0C083C082C0E090004112FF
:1006350000DDD0E0D082D083C0E0740C141200E855
:10064500D0E0C083C082C0E090003F1200DDD0E062
:10065500D082D083754A007543C87544607545C816
:10066500754645754700C200C201200702B2012048
:10067500011020040515430206A120051F054302AC
:1006850006A120040AE5442499D4F5440206A120D4
:10069500050AE5442401D4F5440206A1200A02B264
:1006A5000020001020090515450206D320081F0566
:1006B500450206D320090AE5462499D4F5460206E3
:1006C500D320080AE5462401D4F5460206D3E545BC
:1006D500C0E07402141200E8D0E0120375E4E543AB
:1006E500C0E07409141200E8D0E0120375E4C0E01C
:1006F5007406141200E8D0E0C000A8461200EFD03E
:1007050000C0E0740D141200E8D0E0C000A8441247
:1007150000EFD00020030FE54AB40005754A0180BB
:1007250005754A00800012055675E807C2EFD2EE3E
:1007350030EFFDE5C3C4C0E0540FF9D0E054F045F7
:10074500C2F875E801C2EFD2EE30EFFDE5C3C4C0D3
:10075500E0540FFCD0E054F045C2FB8B308C317572
:10076500320075330075347C7535C47536007537C0
:100775000012027F7534FF75350F75360075370029
:1007850012030C7534D075356B753600753700124C
:1007950001EB753464753500753600753700120246
:1007A5007F120105C0E0740C141200EAD0E01203B8
:1007B500B612018E85303885313985323A85333B1D
:1007C5008830893175320075330075347C7535C4D0
:1007D50075360075370012027F7534FF75350F7554
:1007E500360075370012030C75346475350075369F
:1007F5000075370012030C753445753514753600D0
:1008050075370012027F853834853935853A368546
:100815003B371201CA120105C0E07403141200EA45
:10082500D0E0120391C0E0E53FC4540F44301205F7
:1008350038E53F540F4430120538E53EC4540F44A3
:1008450030120538E53E540F4430120538D0E0E546
:100855003DC4540F4430120538753410753527756D
:10086500360075370012030C8530488531497A64A6
:10087500120550E54AB40025C0E07410141200E8D2
:10088500D0E0C083C082C0E09000451200DDD0E01A
:10089500D082D08375410075470002066FB40141CF
:1008A500C0E07410141200E8D0E0C083C082C0E03C
:1008B5009000471200DDD0E0D082D083C29675410A
:1008C50064E5472401F547743CC395475006754ACE
:1008D5000002066FE543D395485003754A020206A8
:1008E5006FD296B4023AC0E07410141200E8D0E05A
:1008F500C083C082C0E09000491200DDD0E0D08204
:10090500D083754114E5472401F5477A3212055025
:10091500E544C395475003754A0302066F02087AFA
:10092500B4032FC0E07410141200E8D0E0C083C0F7
:1009350082C0E090004B1200DDD0E0D082D08375FC
:100945004164754700E545C395485003754A04025F
:10095500066FB40437C0E07410141200E8D0E0C08C
:1009650083C082C0E090004D1200DDD0E0D082D07F
:1009750083754114E5472401F5477A32120550E5A0
:1009850046C395475003754A0502066FB4058EC0E8
:10099500E07410141200E8D0E0C083C082C0E0907B
:1009A500004F1200DDD0E0D082D083754100743C49
:0E09B500C395484003754A0012046802066F9D
:00000001FF
