:10000000020486546F20202020202020546A2020C3
:100010002020200053746174652030005374617493
:10002000652031005374617465203200537461742B
:100030006520330053746174652034005374617417
:040040006520350002
:10004400C000788500D8FDD00022C000C001792806
:100054007868D8FED9FADAF6D001D00022D2941208
:100064000044C29422A2E79283A2E69282A2E5927D
:1000740081A2E49280120061120044A2E39283A25E
:10008400E29282A2E19281A2E0928012006122D2E5
:1000940093020069C293020069C294C0027A2812D2
:1000A400004ED002743312009874331200987432E4
:1000B4001200987428120098740C1200987401129B
:1000C4000098C0027A0212004ED00222E493600625
:1000D400120093A380F62244404480020098C0E0BA
:1000E400E8C4540F4430120093E8540F4430120013
:0400F40093D0E022A3
:1000F800C0E0C0D0C000C001C002E4F53CF53DF549
:100108003EF53FF5407A20E533A2E779047830E6FA
:1001180033F608D9FA7905783CE636D4F608D9F9E1
:10012800DAE5D002D001D000D0D0D0E022C0E0C0C3
:10013800D0C000C001C002E4F53CF53DF53EF53FF6
:10014800F5407A20E533A2E779047830E633F608FB
:10015800D9FA7905783CC0D0E6243320E70224D0C8
:1001680020E30224FDD0D033F608D9EADAD6D0024B
:10017800D001D000D0D0D0E022C0E0C0D0C000C0B4
:1001880001C0027A207905C37840E613C0D030E771
:100198000224D030E30224FDF618D0D0D9EC79043B
:1001A8007833E613F618D9FADADBD002D001D0009A
:1001B800D0D0D0E022C0E0C0D0E5302534F530E51D
:1001C800313535F531E5323536F532E5333537F544
:1001D80033D0D0D0E022C0E0C0D0C3E5309534F5AC
:1001E80030E5319535F531E5329536F532E533951B
:1001F80037F533D0D0D0E022C0E0C0D0C3E5309589
:1002080034E5319535E5329536E53395379200D0AA
:10021800D0D0E022C0E0C0D0C3E5349530E53595B4
:1002280031E5369532E53795339200D0D0D0E022CB
:10023800C0E0C0D0C200C3E53495307014E53595F0
:1002480031700EE53695327008E53795337002D275
:1002580000D0D0D0E02212023820000302021C2273
:1002680012023820000302020022C0E0C0F0C0D011
:10027800C000C001C002C003E5308534F0A4F8A96D
:10028800F0E5318534F0A429F9E435F0FAE5308554
:1002980035F0A429F9E5F03AFAE433FBE532853480
:1002A800F0A42AFAE5F03BFBE5318535F0A42AFAFB
:1002B800E5F03BFBE5308536F0A42AFAE5F03BFB98
:1002C800E5338534F0A42BFBE5328535F0A42BFB10
:1002D800E5318536F0A42BFBE5308537F0A42BFB00
:1002E8008B338A3289318830D003D002D001D000D4
:1002F800D0D0D0F0D0E022C0E0C0D0C000C001C053
:1003080002C003C0047C20E4F8F9FAFBC3E53033EB
:10031800F530E53133F531E53233F532E53333F590
:1003280033E833F8E933F9EA33FAEB33FBC3E895FA
:1003380034E99535EA9536EB95374013E89534F866
:10034800E99535F9EA9536FAEB9537FB433001DC48
:10035800BBD004D003D002D001D000D0D0D0E0224E
:10036800C000A83F1200E2D000C000A83E1200E280
:10037800D000C0E0742E120093D0E0C000A83D1257
:1003880000E2D00022C000A83E1200E2D000C0E087
:10039800742E120093D0E0C000A83D1200E2D000F5
:1003A8002275AC0075AD0075B30075B40075B10069
:1003B80075B200438E1043878075985253C4DF533B
:1003C800890F438920758DF7D28EC28C438E0853CE
:1003D80089F043890143B30253B4FD43AC0153ADE3
:1003E800FE53E8F043E80753E2F043E20175F600F4
:1003F80043F68043F60143E10122C28CC28D758C1D
:10040800BF758A28D28C308DFD22120402DAFB22B5
:1004180053E8F043E800C2EFD2EE30EFFDD208D245
:1004280007D206D205D204D203D202D201C3E5C351
:1004380094F04003C20822C3E5C394D04003C20726
:1004480022C3E5C394B04003C20622C3E5C3949017
:100458004003C20522C3E5C394704003C20422C30B
:10046800E5C394504003C20322C3E5C3943040035C
:10047800C20222C3E5C394104003C201222275813F
:100488007F1203A912009DC0E07401141200DDD090
:10049800E0C083C082C0E09000031200D0D0E0D05A
:1004A80082D08375490075439675443C7545DC7563
:1004B800462D12041875E807C2EFD2EE30EFFDE5BD
:1004C800C3C4C0E0540FF9D0E054F045C2F875E851
:1004D80001C2EFD2EE30EFFDE5C3C4C0E0540FFC1B
:1004E800D0E054F045C2FB8B308C31753200753347
:1004F8000075347C7535C475360075370012027284
:100508007534FF75350F7536007537001202FF75A3
:1005180034D075356B7536007537001201DE7534C9
:10052800647535007536007537001202721200F8CE
:10053800C0E0740C141200DDD0E012038D120181AA
:1005480085303885313985323A85333B8830893171
:1005580075320075330075347C7535C47536007591
:1005680037001202727534FF75350F75360075370E
:10057800001202FF75346475350075360075370052
:100588001202FF753445753514753600753700123B
:100598000272853834853935853A36853B371201FC
:1005A800BD1200F8C0E07403141200DDD0E012039D
:1005B800687A32120412E549B40028C0E0740514C0
:1005C8001200DBD0E0C083C082C0E09000141200AB
:1005D800D0D0E0D082D08375410020010375490155
:1005E8000204BAB40137C0E07405141200DBD0E08D
:1005F800C083C082C0E090001C1200D0D0E0D0823E
:10060800D083C29675416475470075430A75480FD3
:10061800E543D3954850037549020204BAD296B40B
:100628000232C0E07405141200DBD0E0C083C0823F
:10063800C0E09000241200D0D0E0D082D083754171
:1006480014754746E544C3954750037549030204AA
:10065800BA0205C0B40332C0E07405141200DBD03E
:10066800E0C083C082C0E090002C1200D0D0E0D05F
:1006780082D0837541647547007548FAE545C3958E
:100688004850037549040204BAB4042FC0E0740545
:10069800141200DBD0E0C083C082C0E090003412A6
:1006A80000D0D0E0D082D083754114754746E54626
:1006B800C3954750037549050204BAB40593C0E0D1
:1006C8007405141200DBD0E0C083C082C0E0900043
:1006D8003C1200D0D0E0D082D083754100754846E6
:0D06E800743CC3954850037549000204BAE4
:00000001FF
