:1000000002055C4F3D202020202020204A3D20205A
:100010002020200053746174652030005374617493
:10002000652031005374617465203200537461742B
:100030006520330053746174652034005374617417
:0A004000652035006F6E006F66004A
:10004A00C000788500D8FDD00022C000C001792800
:10005A007868D8FED9FADAF6D001D00022D2941202
:10006A00004AC29422A2E79283A2E69282A2E59271
:10007A0081A2E4928012006712004AA2E39283A24C
:10008A00E29282A2E19281A2E0928012006722D2D9
:10009A009302006FC29302006FC294C0027A2812C0
:1000AA000054D002743312009E743312009E7432CC
:1000BA0012009E742812009E740C12009E74011283
:1000CA00009EC0027A02120054D00222E493600613
:1000DA00120099A380F6224440448002009EC0E0A8
:1000EA00E8C4540F4430120099E8540F4430120007
:0400FA0099D0E02297
:1000FE00C0E0C0D0C000C001C002E4F53CF53DF543
:10010E003EF53FF5407A20E533A2E779047830E6F4
:10011E0033F608D9FA7905783CE636D4F608D9F9DB
:10012E00DAE5D002D001D000D0D0D0E022C0E0C0BD
:10013E00D0C000C001C002E4F53CF53DF53EF53FF0
:10014E00F5407A20E533A2E779047830E633F608F5
:10015E00D9FA7905783CC0D0E6243320E70224D0C2
:10016E0020E30224FDD0D033F608D9EADAD6D00245
:10017E00D001D000D0D0D0E022C0E0C0D0C000C0AE
:10018E0001C0027A207905C37840E613C0D030E76B
:10019E000224D030E30224FDF618D0D0D9EC790435
:1001AE007833E613F618D9FADADBD002D001D00094
:1001BE00D0D0D0E022C0E0C0D0E5302534F530E517
:1001CE00313535F531E5323536F532E5333537F53E
:1001DE0033D0D0D0E022C0E0C0D0C3E5309534F5A6
:1001EE0030E5319535F531E5329536F532E5339515
:1001FE0037F533D0D0D0E022C0E0C0D0C3E5309583
:10020E0034E5319535E5329536E53395379200D0A4
:10021E00D0D0E022C0E0C0D0C3E5349530E53595AE
:10022E0031E5369532E53795339200D0D0D0E022C5
:10023E00C0E0C0D0C200C3E53495307014E53595EA
:10024E0031700EE53695327008E53795337002D26F
:10025E0000D0D0D0E02212023E2000030202222261
:10026E0012023E20000302020622C0E0C0F0C0D0FF
:10027E00C000C001C002C003E5308534F0A4F8A967
:10028E00F0E5318534F0A429F9E435F0FAE530854E
:10029E0035F0A429F9E5F03AFAE433FBE53285347A
:1002AE00F0A42AFAE5F03BFBE5318535F0A42AFAF5
:1002BE00E5F03BFBE5308536F0A42AFAE5F03BFB92
:1002CE00E5338534F0A42BFBE5328535F0A42BFB0A
:1002DE00E5318536F0A42BFBE5308537F0A42BFBFA
:1002EE008B338A3289318830D003D002D001D000CE
:1002FE00D0D0D0F0D0E022C0E0C0D0C000C001C04D
:10030E0002C003C0047C20E4F8F9FAFBC3E53033E5
:10031E00F530E53133F531E53233F532E53333F58A
:10032E0033E833F8E933F9EA33FAEB33FBC3E895F4
:10033E0034E99535EA9536EB95374013E89534F860
:10034E00E99535F9EA9536FAEB9537FB433001DC42
:10035E00BBD004D003D002D001D000D0D0D0E02248
:10036E00C000A83F1200E8D000C000A83E1200E86E
:10037E00D000C0E0742E120099D0E0C000A83D124B
:10038E0000E8D00022C000A83E1200E8D000C0E075
:10039E00742E120099D0E0C000A83D1200E8D000E3
:1003AE002275AC0075AD0075B30075B40075B10063
:1003BE0075B200438E1043878075985253C4DF5335
:1003CE00890F438920758DF7D28EC28C438E0853C8
:1003DE0089F043890143B30253B4FD43AC0153ADDD
:1003EE00FE53E8F043E80753E2F043E20175F600EE
:1003FE0043F68043F60143E10122C2AF75C7AA75E9
:10040E00C755439F0175C7AA75C75543A50175AF5B
:10041E002275A73F75A68075AEFF75C7AA75C7551D
:10042E0043A40175AF2175A73F75A6808534AE75BF
:10043E00C7AA75C75543A40175A6818535AE75C784
:10044E00AA75C75543A40175A6828536AE75C7AA8F
:10045E0075C75543A40175A6838537AE75C7AA75B2
:10046E00C75543A40175A68475AE5575C7AA75C741
:10047E005543A40175A68575AEAA75C7AA75C7554D
:10048E0043A40175C7AA75C75553A5FE75C7AA75AE
:10049E00C755539FFED2AF22903F84E493B4551DAF
:1004AE00A3E493B4AA17903F80E493F534A3E493A6
:1004BE00F535A3E493F536A3E493F53722753401AD
:1004CE0075350275360375370422C28CC28D758C54
:1004DE00BF758A28D28C308DFD221204D8DAFB2209
:1004EE0053E8F043E800C2EFD2EE30EFFDD209D26E
:1004FE0008D207D206D205D204D203D202C3E5C374
:10050E0094F04003C20922C3E5C394D04003C2084D
:10051E0022C3E5C394B04003C20722C3E5C394903F
:10052E004003C20622C3E5C394704003C20522C332
:10053E00E5C394504003C20422C3E5C39430400384
:10054E00C20322C3E5C394104003C2022222758166
:10055E007F1203AF1200A3C0E07401141200E3D0A7
:10056E00E0C083C082C0E09000031200D6D0E0D07D
:10057E0082D083753B0075343275353C7536C8753F
:10058E00372D7538001204EE75E807C2EFD2EE3043
:10059E00EFFDE5C3C4C0E0540FF9D0E054F045C2FE
:1005AE00F875E801C2EFD2EE30EFFDE5C3C4C0E04E
:1005BE00540FFCD0E054F045C2FB8B308C317532B9
:1005CE000075330075347C7535C47536007537008B
:1005DE001202787534FF75350F75360075370012B7
:1005EE0003057534D075356B7536007537001201FD
:1005FE00E47534647535007536007537001202786F
:10060E001200FEC0E0740C141200E3D0E01203934B
:10061E0012018785303885313985323A85333B88EA
:10062E0030893175320075330075347C7535C4757B
:10063E0036007537001202787534FF75350F753632
:10064E000075370012030575346475350075360074
:10065E0075370012030575344575351475360075FA
:10066E003700120278853834853935853A36853B20
:10067E00371201C31200FEC0E07403141200E3D05F
:10068E00E012036E75341075352775360075370018
:10069E0012030585303985313A7A641204E8E53B58
:1006AE00B40028C0E07405141200E1D0E0C083C08D
:1006BE0082C0E09000141200D6D0E0D082D08375B4
:1006CE003100200203753B01020593B40134C0E0F2
:1006DE007405141200E1D0E0C083C082C0E0900027
:1006EE001C1200D6D0E0D082D083C29675316475CC
:1006FE003800753464E534D395395003753B0202E6
:10070E000593D296B4023AC0E07405141200E1D0FB
:10071E00E0C083C082C0E09000241200D6D0E0D0AA
:10072E0082D083753114E5382401F5387A321204FB
:10073E00E8E535C395385003753B03020593020671
:10074E00AEB4032FC0E07405141200E1D0E0C083F4
:10075E00C082C0E090002C1200D6D0E0D082D083B0
:10076E00753164753800E536C395395003753B0411
:10077E00020593B40437C0E07405141200E1D0E012
:10078E00C083C082C0E09000341200D6D0E0D08288
:10079E00D083753114E5382401F5387A321204E825
:1007AE00E537C395385003753B05020593B4058EA6
:1007BE00C0E07405141200E1D0E0C083C082C0E036
:1007CE0090003C1200D6D0E0D082D08375310074F8
:0F07DE003CC395394003753B0012040802059394
:00000001FF
