:100000000204C54F3D202020202020204A3D2020F2
:100010002020200053746174652030005374617493
:10002000652031005374617465203200537461742B
:100030006520330053746174652034005374617417
:040040006520350002
:10004400C000788500D8FDD00022C000C001792806
:100054007868D8FED9FADAF6D001D00022D2941208
:100064000044C29422A2E79283A2E69282A2E5927D
:1000740081A2E49280120061120044A2E39283A25E
:10008400E29282A2E19281A2E0928012006122D2E5
:1000940093020069C293020069C294C0027A2812D2
:1000A400004ED002743312009874331200987432E4
:1000B4001200987428120098740C1200987401129B
:1000C4000098C0027A0212004ED00222E493600625
:1000D400120093A380F62244404480020098C0E0BA
:1000E400E8C4540F4430120093E8540F4430120013
:0400F40093D0E022A3
:1000F800C0E0C0D0C000C001C002E4F53CF53DF549
:100108003EF53FF5407A20E533A2E779047830E6FA
:1001180033F608D9FA7905783CE636D4F608D9F9E1
:10012800DAE5D002D001D000D0D0D0E022C0E0C0C3
:10013800D0C000C001C002E4F53CF53DF53EF53FF6
:10014800F5407A20E533A2E779047830E633F608FB
:10015800D9FA7905783CC0D0E6243320E70224D0C8
:1001680020E30224FDD0D033F608D9EADAD6D0024B
:10017800D001D000D0D0D0E022C0E0C0D0C000C0B4
:1001880001C0027A207905C37840E613C0D030E771
:100198000224D030E30224FDF618D0D0D9EC79043B
:1001A8007833E613F618D9FADADBD002D001D0009A
:1001B800D0D0D0E022C0E0C0D0E5302534F530E51D
:1001C800313535F531E5323536F532E5333537F544
:1001D80033D0D0D0E022C0E0C0D0C3E5309534F5AC
:1001E80030E5319535F531E5329536F532E533951B
:1001F80037F533D0D0D0E022C0E0C0D0C3E5309589
:1002080034E5319535E5329536E53395379200D0AA
:10021800D0D0E022C0E0C0D0C3E5349530E53595B4
:1002280031E5369532E53795339200D0D0D0E022CB
:10023800C0E0C0D0C200C3E53495307014E53595F0
:1002480031700EE53695327008E53795337002D275
:1002580000D0D0D0E02212023820000302021C2273
:1002680012023820000302020022C0E0C0F0C0D011
:10027800C000C001C002C003E5308534F0A4F8A96D
:10028800F0E5318534F0A429F9E435F0FAE5308554
:1002980035F0A429F9E5F03AFAE433FBE532853480
:1002A800F0A42AFAE5F03BFBE5318535F0A42AFAFB
:1002B800E5F03BFBE5308536F0A42AFAE5F03BFB98
:1002C800E5338534F0A42BFBE5328535F0A42BFB10
:1002D800E5318536F0A42BFBE5308537F0A42BFB00
:1002E8008B338A3289318830D003D002D001D000D4
:1002F800D0D0D0F0D0E022C0E0C0D0C000C001C053
:1003080002C003C0047C20E4F8F9FAFBC3E53033EB
:10031800F530E53133F531E53233F532E53333F590
:1003280033E833F8E933F9EA33FAEB33FBC3E895FA
:1003380034E99535EA9536EB95374013E89534F866
:10034800E99535F9EA9536FAEB9537FB433001DC48
:10035800BBD004D003D002D001D000D0D0D0E0224E
:10036800C000A83F1200E2D000C000A83E1200E280
:10037800D000C0E0742E120093D0E0C000A83D1257
:1003880000E2D000C0E07403141200DDD0E0E53FC5
:1003980054F0C460030203CBC0E07420120093D071
:1003A800E0E53F540F60030203CBC0E07420120065
:1003B80093D0E0E53C54F0C47009C0E0742012000A
:1003C80093D0E022C000A83E1200E2D000C0E07442
:1003D8002E120093D0E0C000A83D1200E2D0002207
:1003E80075AC0075AD0075B30075B40075B10075D6
:1003F800B200438E1043878075985253C4DF5389E7
:100408000F438920758DF7D28EC28C438E0853898D
:10041800F043890143B30253B4FD43AC0153ADFE2D
:1004280053E8F043E80753E2F043E20175F600436E
:10043800F68043F60143E10122C28CC28D758CBF60
:10044800758A28D28C308DFD22120441DAFB2253A2
:10045800E8F043E800C2EFD2EE30EFFDD208D20751
:10046800D206D205D204D203D202D201C3E5C39484
:10047800F04003C20822C3E5C394D04003C2072258
:10048800C3E5C394B04003C20622C3E5C3949040B9
:1004980003C20522C3E5C394704003C20422C3E526
:1004A800C394504003C20322C3E5C394304003C23F
:1004B8000222C3E5C394104003C201222275817F42
:1004C8001203E812009DC0E07401141200DDD0E0B0
:1004D800C083C082C0E09000031200D0D0E0D08278
:1004E800D08375490075439675443C7545DC75465F
:1004F8002D75470012045775E807C2EFD2EE30EFAA
:10050800FDE5C3C4C0E0540FF9D0E054F045C2F88B
:1005180075E801C2EFD2EE30EFFDE5C3C4C0E05488
:100528000FFCD0E054F045C2FB8B308C31753200A3
:1005380075330075347C7535C4753600753700120F
:1005480002727534FF75350F753600753700120263
:10055800FF7534D075356B7536007537001201DEBE
:1005680075346475350075360075370012027212DD
:1005780000F8C0E0740C141200DDD0E01203CC12B5
:10058800018185303885313985323A85333B883069
:10059800893175320075330075347C7535C475360C
:1005A800007537001202727534FF75350F75360005
:1005B8007537001202FF753464753500753600759D
:1005C80037001202FF7534457535147536007537D6
:1005D80000120272853834853935853A36853B37BD
:1005E8001201BD1200F8C0E07403141200DDD0E05F
:1005F8001203687A64120451E549B40028C0E07413
:1006080005141200DBD0E0C083C082C0E090001463
:100618001200D0D0E0D082D083754100200103754C
:1006280049010204FCB40137C0E07405141200DB70
:10063800D0E0C083C082C0E090001C1200D0D0E09F
:10064800D082D083C29675416475470075430A7598
:10065800480FE543D3954850037549020204FCD27C
:1006680096B4023AC0E07405141200DBD0E0C083EF
:10067800C082C0E09000241200D0D0E0D082D083A5
:10068800754114E5472401F5477A32120451E544CF
:10069800C3954750037549030204FC020602B403DC
:1006A80032C0E07405141200DBD0E0C083C082C001
:1006B800E090002C1200D0D0E0D082D08375416445
:1006C8007547007548FAE545C395485003754904D0
:1006D8000204FCB40437C0E07405141200DBD0E057
:1006E800C083C082C0E09000341200D0D0E0D08235
:1006F800D083754114E5472401F5477A3212045135
:10070800E546C3954750037549050204FCB4058BBB
:10071800C0E07405141200DBD0E0C083C082C0E0E2
:1007280090003C1200D0D0E0D082D0837541007593
:0F0738004846743CC3954850037549000204FCC1
:00000001FF
