:1000000002055C4F3D202020202020204A3D20205A
:10001000202020002C0072007300300031003200DC
:060020003300340035003E
:10002600C000788500D8FDD00022C000C001792824
:100036007868D8FED9FADAF6D001D00022D2941226
:100046000026C29422A2E79283A2E69282A2E592B9
:1000560081A2E49280120043120026A2E39283A2B8
:10006600E29282A2E19281A2E0928012004322D221
:100076009302004BC29302004BC294C0027A28122C
:100086000030D002743312007A743312007A74325C
:1000960012007A742812007A740C12007A74011213
:1000A600007AC0027A02120030D00222E49360067F
:1000B600120075A380F6224440448002007AC0E014
:1000C600E8C4540F4430120075E8540F443012004F
:0400D60075D0E022DF
:1000DA00C0E0C0D0C000C001C002E4F53CF53DF567
:1000EA003EF53FF5407A20E533A2E779047830E619
:1000FA0033F608D9FA7905783CE636D4F608D9F900
:10010A00DAE5D002D001D000D0D0D0E022C0E0C0E1
:10011A00D0C000C001C002E4F53CF53DF53EF53F14
:10012A00F5407A20E533A2E779047830E633F60819
:10013A00D9FA7905783CC0D0E6243320E70224D0E6
:10014A0020E30224FDD0D033F608D9EADAD6D00269
:10015A00D001D000D0D0D0E022C0E0C0D0C000C0D2
:10016A0001C0027A207905C37840E613C0D030E78F
:10017A000224D030E30224FDF618D0D0D9EC790459
:10018A007833E613F618D9FADADBD002D001D000B8
:10019A00D0D0D0E022C0E0C0D0E5302534F530E53B
:1001AA00313535F531E5323536F532E5333537F562
:1001BA0033D0D0D0E022C0E0C0D0C3E5309534F5CA
:1001CA0030E5319535F531E5329536F532E5339539
:1001DA0037F533D0D0D0E022C0E0C0D0C3E53095A7
:1001EA0034E5319535E5329536E53395379202D0C7
:1001FA00D0D0E022C0E0C0D0C3E5349530E53595D3
:10020A0031E5369532E53795339202D0D0D0E022E7
:10021A00C0E0C0D0C202C3E53495307014E535950C
:10022A0031700EE53695327008E53795337002D293
:10023A0002D0D0D0E02212021A2002030201FE22CA
:10024A0012021A2002030201E222C0E0C0F0C0D06A
:10025A00C000C001C002C003E5308534F0A4F8A98B
:10026A00F0E5318534F0A429F9E435F0FAE5308572
:10027A0035F0A429F9E5F03AFAE433FBE53285349E
:10028A00F0A42AFAE5F03BFBE5318535F0A42AFA19
:10029A00E5F03BFBE5308536F0A42AFAE5F03BFBB6
:1002AA00E5338534F0A42BFBE5328535F0A42BFB2E
:1002BA00E5318536F0A42BFBE5308537F0A42BFB1E
:1002CA008B338A3289318830D003D002D001D000F2
:1002DA00D0D0D0F0D0E022C0E0C0D0C000C001C071
:1002EA0002C003C0047C20E4F8F9FAFBC3E530330A
:1002FA00F530E53133F531E53233F532E53333F5AF
:10030A0033E833F8E933F9EA33FAEB33FBC3E89518
:10031A0034E99535EA9536EB95374013E89534F884
:10032A00E99535F9EA9536FAEB9537FB433001DC66
:10033A00BBD004D003D002D001D000D0D0D0E0226C
:10034A0075F064844430120075E5F075F00A84444F
:10035A0030120075E5F0443012007522C000A83F43
:10036A001200C4D000C000A83E1200C4D000C0E0F1
:10037A00742E120075D0E0C000A83D1200C4D0004F
:10038A0022C000A83E1200C4D000C0E0742E1200A1
:10039A0075D0E0C000A83D1200C4D0002275AC00A0
:1003AA0075AD0075B30075B40075B10075B2004340
:1003BA008E1043878075985253C4DF53890F43893F
:1003CA0020758DF7D28EC28C438E085389F04389EB
:1003DA000143B30253B4FD43AC0153ADFE53E8F0FD
:1003EA0043E80753E2F043E20175F60043F680431F
:1003FA00F60143E10122C2AF75C7AA75C755439FEB
:10040A000175C7AA75C75543A50175AF2275A73FE0
:10041A0075A68075AEFF75C7AA75C75543A4017541
:10042A00AF2175A73F75A6808543AE75C7AA75C764
:10043A005543A40175A6818544AE75C7AA75C755EB
:10044A0043A40175A6828545AE75C7AA75C75543EB
:10045A00A40175A6838546AE75C7AA75C75543A478
:10046A000175A68475AE5575C7AA75C75543A4010B
:10047A0075A68575AEAA75C7AA75C75543A4017531
:10048A00C7AA75C75553A5FE75C7AA75C755539F01
:10049A00FED2AF22903F84E493B4551DA3E493B4F3
:1004AA00AA17903F80E493F543A3E493F544A3E4A9
:1004BA0093F545A3E493F546227543017544027505
:1004CA004503754604223099FDC299F59922C28CDA
:1004DA00C28D758CBF758A28D28C308DFD2212048C
:1004EA00D8DAFB2253E8F043E800C2EFD2EE30EF4D
:1004FA00FDD20AD209D208D207D206D205D204D234
:10050A0003C3E5C394F04003C20A22C3E5C394D0EF
:10051A004003C20922C3E5C394B04003C20822C300
:10052A00E5C394904003C20722C3E5C39470400315
:10053A00C20622C3E5C394504003C20522C3E5C3E1
:10054A0094304003C20422C3E5C394104003C2039B
:10055A00222275817F1203A712007FC0E074011462
:10056A001200BFD0E0C083C082C0E0900003120036
:10057A00B2D0E0D082D083C0E07401141200BDD0A2
:10058A00E0C083C082C0E09000161200B2D0E0D072
:10059A0082D083C0E07405141200BDD0E0C083C0CD
:1005AA0082C0E09000141200B2D0E0D082D083C0A2
:1005BA00E07408141200BDD0E0C083C082C0E0908D
:1005CA0000181200B2D0E0D082D083C0E0740C14BC
:1005DA001200BDD0E0C083C082C0E09000141200B7
:1005EA00B2D0E0D082D083754A007543C8754460A2
:1005FA007545C8754645754700C200C201200A0202
:10060A00B200200010200905154502063920081FEE
:10061A00054502063920090AE5462499D4F5460219
:10062A00063920080AE5462401D4F546020639208F
:10063A000702B201200110200605154302066B20AD
:10064A00051F054302066B20060AE5442499D4F5E2
:10065A004402066B2005D8E5442401D4F544020679
:10066A006BE545C0E07402141200BDD0E012034AE3
:10067A00E4E544C0E07409141200BDD0E012034A54
:10068A00E4C0E07406141200BDD0E0C000A846120F
:10069A0000C4D000C0E0740D141200BDD0E0C00048
:1006AA00A8441200C4D00020030FE54AB40005751F
:1006BA004A018005754A0080001204EE75E807C2F7
:1006CA00EFD2EE30EFFDE5C3C4C0E0540FF9D0E03D
:1006DA0054F045C2F875E801C2EFD2EE30EFFDE5FD
:1006EA00C3C4C0E0540FFCD0E054F045C2FB8B30C9
:1006FA008C3175320075330075347C7535C47536A6
:10070A00007537001202547534FF75350F753600BF
:10071A007537001202E17534D075356B7536007580
:10072A0037001201C07534647535007536007537A7
:10073A00001202541200DAC0E0740C141200BFD086
:10074A00E012038B12016385303885313985323ADC
:10075A0085333B8830893175320075330075347CB6
:10076A007535C47536007537001202547534FF7535
:10077A00350F7536007537001202E1753464753528
:10078A00007536007537001202E175344575351467
:10079A007536007537001202548538348539358527
:1007AA003A36853B3712019F1200DAC0E07403140F
:1007BA001200BFD0E0120366C0E0E53FC4540F4404
:1007CA00301204D0E53F540F44301204D0E53EC441
:1007DA00540F44301204D0E53E540F44301204D072
:1007EA00D0E0E53DC4540F44301204D0753410757E
:1007FA0035277536007537001202E1853048853194
:10080A00497A641204E8E54AB40022C0E07410147C
:10081A001200BDD0E0C083C082C0E090001A12006E
:10082A00B2D0E0D082D083754100020607B4013409
:10083A00C0E07410141200BDD0E0C083C082C0E0D2
:10084A0090001C1200B2D0E0D082D083C2967541CB
:10085A0064754700754364E543D395485003754A68
:10086A0002020607D296B4023AC0E07410141200CB
:10087A00BDD0E0C083C082C0E090001E1200B2D09A
:10088A00E0D082D083754114E5472401F5477A32D6
:10089A001204E8E544C395475003754A0302060764
:1008AA00020812B4032FC0E07410141200BDD0E085
:1008BA00C083C082C0E09000201200B2D0E0D08293
:1008CA00D083754164754700E545C3954850037563
:1008DA004A04020607B40437C0E07410141200BDBB
:1008EA00D0E0C083C082C0E09000221200B2D0E003
:1008FA00D082D083754114E5472401F5477A321234
:10090A0004E8E546C395475003754A05020607B44D
:10091A00058EC0E07410141200BDD0E0C083C082FE
:10092A00C0E09000241200B2D0E0D082D08375419A
:10093A0000743CC395484003754A0012040002063D
:01094A0007A5
:00000001FF
